:100000000C9435000C945D000C945D000C945D0024
:100010000C945D000C945D000C945D000C945D00EC
:100020000C945D000C945D000C945D000C945D00DC
:100030000C945D000C945D000C945D000C945D00CC
:100040000C94A9020C945D000C94B4010C94E6018C
:100050000C945D000C945D000C945D000C945D00AC
:100060000C945D000C945D00160211241FBECFEFAE
:10007000D8E0DEBFCDBF11E0A0E0B1E0E0EBF6E0FC
:1000800002C005900D92AC31B107D9F721E0ACE187
:10009000B1E001C01D92A23CB207E1F710E0CAE650
:1000A000D0E004C02297FE010E945203C836D10757
:1000B000C9F70E949A020C9456030C94000026E0A3
:1000C00040E855E260E070E08CE191E00E9452016E
:1000D00060E071E08CE191E00C9497020895FC01DE
:1000E000818D228D90E0805C9F4F821B91098F73E0
:1000F00099270895FC01918D828D981731F0828D9A
:10010000E80FF11D858D90E008958FEF9FEF089522
:10011000FC01918D828D981761F0828DDF01A80F0F
:10012000B11D5D968C91928D9F5F9F73928F90E031
:1001300008958FEF9FEF08958CE092E0892B49F0AE
:1001400080E090E0892B29F00E940C0281110C9430
:1001500000000895FC01848DDF01A80FB11DA35A92
:10016000BF4F2C91848D90E001968F739927848FD7
:10017000A689B7892C93A089B1898C9180648C93CE
:10018000938D848D981306C00288F389E02D8081B9
:100190008F7D80830895CF93DF93EC01888D882332
:1001A000C9F0EA89FB89808185FD05C0A889B989E4
:1001B0008C9186FD0FC00FB607FCF5CF808185FFBF
:1001C000F2CFA889B9898C9185FFEDCFCE010E942D
:1001D000AA00E7CFDF91CF910895CF92DF92FF92EF
:1001E0000F931F93CF93DF931F92CDB7DEB76C01B0
:1001F00081E0D60158968C9358975B969C915B97BB
:100200005C968C915C97981307C05096ED91FC9189
:100210005197808185FD2EC0F601038D10E00F5FA0
:100220001F4F0F731127F02EF601848DF81211C0A5
:100230000FB607FCF9CFD6015096ED91FC9151977E
:10024000808185FFF1CFC60169830E94AA00698180
:10025000EBCF838DE80FF11DE35AFF4F6083D6018A
:100260005B960C935B975296ED91FC91539780812E
:1002700080620CC0D6015696ED91FC915797608331
:100280005096ED91FC91519780818064808381E04C
:1002900090E00F90DF91CF911F910F91FF90DF9031
:1002A000CF900895BF92CF92DF92EF92FF92CF93BB
:1002B000DF93EC016A017B01B22EE889F98982E0C3
:1002C0008083411581EE580761057105A1F060E05A
:1002D00079E08DE390E0A70196010E942E03215062
:1002E00031094109510956954795379527952115AB
:1002F00080E1380798F0E889F989108260E874E8AD
:100300008EE190E0A70196010E942E032150310951
:10031000410951095695479537952795EC85FD85F7
:100320003083EE85FF852083188EEC89FD89B082AD
:10033000EA89FB89808180618083EA89FB898081E9
:1003400088608083EA89FB89808180688083EA896C
:10035000FB8980818F7D8083DF91CF91FF90EF902B
:10036000DF90CF90BF9008951F920F920FB60F921B
:1003700011242F938F939F93EF93FF93E0912C0180
:10038000F0912D018081E0913201F091330182FDE5
:1003900012C09081809135018F5F8F73209136015B
:1003A000821751F0E0913501F0E0E45EFE4F958F49
:1003B0008093350101C08081FF91EF919F918F91D2
:1003C0002F910F900FBE0F901F9018951F920F92B4
:1003D0000FB60F9211242F933F934F935F936F9318
:1003E0007F938F939F93AF93BF93EF93FF938CE192
:1003F00091E00E94AA00FF91EF91BF91AF919F9170
:100400008F917F916F915F914F913F912F910F90BD
:100410000FBE0F901F9018958CE191E00E946F0025
:1004200021E0892B09F420E0822F089510921F010A
:1004300010921E0188EE93E0A0E0B0E080932001CE
:1004400090932101A0932201B093230180E191E0D8
:1004500090931D0180931C0185EC90E090932901FD
:100460008093280184EC90E090932B0180932A01E3
:1004700080EC90E090932D0180932C0181EC90E032
:1004800090932F0180932E0182EC90E090933101A4
:100490008093300186EC90E0909333018093320199
:1004A00010923501109236011092370110923801E6
:1004B0000895CF92DF92EF92FF920F931F93CF9305
:1004C000DF937C016A01EB0100E010E00C151D05D3
:1004D00071F06991D701ED91FC910190F081E02DCF
:1004E000C7010995892B19F00F5F1F4FEFCFC80186
:1004F000DF91CF911F910F91FF90EF90DF90CF9000
:1005000008956115710581F0DB010D900020E9F778
:10051000AD0141505109461B570BDC01ED91FC9197
:100520000280F381E02D099480E090E008950C941E
:10053000810208950E94F3020E9499020E945F00C6
:10054000CCE9D0E00E946E002097E1F30E949C006D
:10055000F9CF1F920F920FB60F9211242F933F9352
:100560008F939F93AF93BF938091BA019091BB01FA
:10057000A091BC01B091BD013091B90123E0230FDE
:100580002D3720F40196A11DB11D05C026E8230FCB
:100590000296A11DB11D2093B9018093BA019093D9
:1005A000BB01A093BC01B093BD018091BE019091AD
:1005B000BF01A091C001B091C1010196A11DB11D63
:1005C0008093BE019093BF01A093C001B093C1017D
:1005D000BF91AF919F918F913F912F910F900FBE3F
:1005E0000F901F901895789484B5826084BD84B56F
:1005F000816084BD85B5826085BD85B5816085BD1E
:10060000EEE6F0E0808181608083E1E8F0E0108236
:10061000808182608083808181608083E0E8F0E077
:10062000808181608083E1EBF0E080818460808361
:10063000E0EBF0E0808181608083EAE7F0E0808198
:1006400084608083808182608083808181608083F8
:100650008081806880831092C1000895A1E21A2EE3
:10066000AA1BBB1BFD010DC0AA1FBB1FEE1FFF1F56
:10067000A217B307E407F50720F0A21BB30BE40BA6
:10068000F50B661F771F881F991F1A9469F76095ED
:100690007095809590959B01AC01BD01CF010895A7
:1006A000EE0FFF1F0590F491E02D0994F894FFCF11
:1006B000596F7572204844206973200000000000C3
:0C06C000ED0059026F0088007A00CB00AA
:00000001FF
